{
  "contractName": "Trust",
  "abi": [
    {
      "inputs": [],
      "payable": false,
      "stateMutability": "nonpayable",
      "type": "constructor"
    },
    {
      "constant": true,
      "inputs": [],
      "name": "creator",
      "outputs": [
        {
          "internalType": "address",
          "name": "",
          "type": "address"
        }
      ],
      "payable": false,
      "stateMutability": "view",
      "type": "function"
    },
    {
      "constant": true,
      "inputs": [],
      "name": "funded",
      "outputs": [
        {
          "internalType": "bool",
          "name": "",
          "type": "bool"
        }
      ],
      "payable": false,
      "stateMutability": "view",
      "type": "function"
    },
    {
      "constant": true,
      "inputs": [],
      "name": "heir",
      "outputs": [
        {
          "internalType": "address payable",
          "name": "",
          "type": "address"
        }
      ],
      "payable": false,
      "stateMutability": "view",
      "type": "function"
    },
    {
      "constant": true,
      "inputs": [],
      "name": "transferDate",
      "outputs": [
        {
          "internalType": "uint256",
          "name": "",
          "type": "uint256"
        }
      ],
      "payable": false,
      "stateMutability": "view",
      "type": "function"
    },
    {
      "constant": true,
      "inputs": [],
      "name": "usState",
      "outputs": [
        {
          "internalType": "string",
          "name": "",
          "type": "string"
        }
      ],
      "payable": false,
      "stateMutability": "view",
      "type": "function"
    },
    {
      "constant": false,
      "inputs": [
        {
          "internalType": "address payable",
          "name": "_heir",
          "type": "address"
        },
        {
          "internalType": "string",
          "name": "_usState",
          "type": "string"
        },
        {
          "internalType": "uint256",
          "name": "_transferDate",
          "type": "uint256"
        }
      ],
      "name": "initContract",
      "outputs": [],
      "payable": false,
      "stateMutability": "nonpayable",
      "type": "function"
    },
    {
      "constant": false,
      "inputs": [],
      "name": "fund",
      "outputs": [],
      "payable": true,
      "stateMutability": "payable",
      "type": "function"
    },
    {
      "constant": false,
      "inputs": [],
      "name": "attemptTransfer",
      "outputs": [],
      "payable": false,
      "stateMutability": "nonpayable",
      "type": "function"
    }
  ],
  "bytecode": "0x608060405234801561001057600080fd5b50336000806101000a81548173ffffffffffffffffffffffffffffffffffffffff021916908373ffffffffffffffffffffffffffffffffffffffff16021790555061090f806100606000396000f3fe60806040526004361061007b5760003560e01c8063c10ad9011161004e578063c10ad9011461014f578063ce4438cb14610241578063d305bd7e1461026c578063f3a504f2146102fc5761007b565b806302d05d3f146100805780635149fec1146100d757806391f2ebb8146100ee578063b60d428814610145575b600080fd5b34801561008c57600080fd5b5061009561032b565b604051808273ffffffffffffffffffffffffffffffffffffffff1673ffffffffffffffffffffffffffffffffffffffff16815260200191505060405180910390f35b3480156100e357600080fd5b506100ec610350565b005b3480156100fa57600080fd5b5061010361048d565b604051808273ffffffffffffffffffffffffffffffffffffffff1673ffffffffffffffffffffffffffffffffffffffff16815260200191505060405180910390f35b61014d6104b3565b005b34801561015b57600080fd5b5061023f6004803603606081101561017257600080fd5b81019080803573ffffffffffffffffffffffffffffffffffffffff169060200190929190803590602001906401000000008111156101af57600080fd5b8201836020820111156101c157600080fd5b803590602001918460018302840111640100000000831117156101e357600080fd5b91908080601f016020809104026020016040519081016040528093929190818152602001838380828437600081840152601f19601f82011690508083019250505050505050919291929080359060200190929190505050610575565b005b34801561024d57600080fd5b5061025661075d565b6040518082815260200191505060405180910390f35b34801561027857600080fd5b50610281610763565b6040518080602001828103825283818151815260200191508051906020019080838360005b838110156102c15780820151818401526020810190506102a6565b50505050905090810190601f1680156102ee5780820380516001836020036101000a031916815260200191505b509250505060405180910390f35b34801561030857600080fd5b50610311610801565b604051808215151515815260200191505060405180910390f35b6000809054906101000a900473ffffffffffffffffffffffffffffffffffffffff1681565b600073ffffffffffffffffffffffffffffffffffffffff16600160009054906101000a900473ffffffffffffffffffffffffffffffffffffffff1673ffffffffffffffffffffffffffffffffffffffff16141580156103b0575060035442115b610422576040517f08c379a00000000000000000000000000000000000000000000000000000000081526004018080602001828103825260088152602001807f4e6f74207965742100000000000000000000000000000000000000000000000081525060200191505060405180910390fd5b600160009054906101000a900473ffffffffffffffffffffffffffffffffffffffff1673ffffffffffffffffffffffffffffffffffffffff166108fc479081150290604051600060405180830381858888f1935050505015801561048a573d6000803e3d6000fd5b50565b600160009054906101000a900473ffffffffffffffffffffffffffffffffffffffff1681565b6000809054906101000a900473ffffffffffffffffffffffffffffffffffffffff1673ffffffffffffffffffffffffffffffffffffffff163373ffffffffffffffffffffffffffffffffffffffff1614610558576040517f08c379a00000000000000000000000000000000000000000000000000000000081526004018080602001828103825260218152602001806108ba6021913960400191505060405180910390fd5b6001600460006101000a81548160ff021916908315150217905550565b6000809054906101000a900473ffffffffffffffffffffffffffffffffffffffff1673ffffffffffffffffffffffffffffffffffffffff163373ffffffffffffffffffffffffffffffffffffffff161461061a576040517f08c379a00000000000000000000000000000000000000000000000000000000081526004018080602001828103825260218152602001806108ba6021913960400191505060405180910390fd5b600073ffffffffffffffffffffffffffffffffffffffff16600160009054906101000a900473ffffffffffffffffffffffffffffffffffffffff1673ffffffffffffffffffffffffffffffffffffffff16146106de576040517f08c379a00000000000000000000000000000000000000000000000000000000081526004018080602001828103825260138152602001807f416c726561647920696e697469616c697a65640000000000000000000000000081525060200191505060405180910390fd5b82600160006101000a81548173ffffffffffffffffffffffffffffffffffffffff021916908373ffffffffffffffffffffffffffffffffffffffff1602179055508160029080519060200190610735929190610814565b50806003819055506000600460006101000a81548160ff021916908315150217905550505050565b60035481565b60028054600181600116156101000203166002900480601f0160208091040260200160405190810160405280929190818152602001828054600181600116156101000203166002900480156107f95780601f106107ce576101008083540402835291602001916107f9565b820191906000526020600020905b8154815290600101906020018083116107dc57829003601f168201915b505050505081565b600460009054906101000a900460ff1681565b828054600181600116156101000203166002900490600052602060002090601f016020900481019282601f1061085557805160ff1916838001178555610883565b82800160010185558215610883579182015b82811115610882578251825591602001919060010190610867565b5b5090506108909190610894565b5090565b6108b691905b808211156108b257600081600090555060010161089a565b5090565b9056fe4f6e6c792063726561746f722063616e2063616c6c2074686973206d6574686f64a265627a7a72315820ce8f3ff9b7f1f285c28fd9f8aa548aa21028e15bdcc1992b5cb4552a268df52764736f6c63430005100032",
  "source": "pragma solidity ^0.5.0;\n\n// every user has an instance of this\n// contract deployed to their wallet\ncontract Trust {\n  address public creator;\n  address payable public heir;\n  string public usState;\n  uint public transferDate;\n  bool public funded;\n\n  modifier onlyCreator() {\n    require(\n      msg.sender == creator,\n      \"Only creator can call this method\"\n    );\n    _;\n  }\n\n  constructor() public {\n    creator = msg.sender;\n  }\n\n  // only the creator can set the contract terms once\n  function initContract(\n    address payable _heir,\n    string memory _usState,\n    uint _transferDate\n  ) onlyCreator public {\n    require (heir == address(0), \"Already initialized\");\n\n    heir = _heir;\n    usState = _usState;\n    transferDate = _transferDate;\n    funded = false;\n  }\n\n  // only the creator can fund the account\n  function fund() onlyCreator external payable {\n    funded = true;\n  }\n\n  // although this is meant for a trustee to invoke\n  // anyone can attempt transfer because the\n  // condition and recipient of transfer is very clear\n  function attemptTransfer() public {\n    require(\n      heir != address(0) &&\n        block.timestamp > transferDate,\n      \"Not yet!\"\n    );\n\n    heir.transfer(address(this).balance);\n  }\n}\n",
  "sourcePath": "/Users/albert/hack3/contracts/Trust.sol",
  "compiler": {
    "name": "solc",
    "version": "0.5.16+commit.9c3226ce.Emscripten.clang"
  },
  "schemaVersion": "3.4.6",
  "updatedAt": "2022-04-09T20:24:30.063Z",
  "networkType": "ethereum",
  "devdoc": {
    "methods": {}
  },
  "userdoc": {
    "methods": {}
  }
}